S012000043616C63756C61746F722E7372656308
S11300000C943A000C9457000C9457000C9457002D
S11300100C9457000C9457000C9457000C94F8045B
S11300200C9457000C9457000C9457000C945700F0
S11300300C9457000C9457000C9457000C945700E0
S11300400C9457000C9457000C9457000C945700D0
S11300500C9457003603160318031A031C031E03DB
S1130060200322032403260328032A032C032E033C
S11300703003320311241FBECFE5D8E0DEBFCDBF6D
S113008010E0A0E6B0E0E2ECFAE102C005900D92C7
S1130090AA38B107D9F723E0AAE8B0E001C01D925D
S11300A0AE35B207E1F70E94A6010C945F0D0C94E3
S11300B00000CF93DF93EC010E94100920918A0085
S11300C030918B00C9018C0F9D1F883542E0940745
S11300D058F42817390758F4E901C457DF4F9093AF
S11300E08B0080938A0005C0C0E0D0E002C0C0E06D
S11300F0D0E00E94E409CE01DF91CF9108950895E4
S1130100C29889EF90E00197F1F700C00000C29A0D
S11301108BED95E00197F1F700C000000895CF93AF
S1130120C82FC098C19888B38F7088BB88B39C2FA0
S1130130907F892B88BB0E94800088B38F7088BB16
S113014088B3C295C07FC82BC8BB0E948000CF91E2
S113015008958FEF87BB84E088BB83E30E948F0000
S113016082E30E948F0088E20E948F008CE00E944C
S11301708F000895CF93C82FC09AC19888B38F7009
S113018088BB88B39C2F907F892B88BB0E948000FA
S113019088B38F7088BB88B3C295C07FC82BC8BB97
S11301A00E948000CF910895813049F028F0823078
S11301B049F0833051F00CC080E8860F0AC080EC0F
S11301C0860F07C080E8860F04C080E8860F01C050
S11301D080E80E948F00089581E00E948F000895B6
S11301E0CF93DF93EC018881882331F021960E941C
S11301F0BA0089918111FBCFDF91CF910895CF93FC
S1130200DF93EC01862F642F0E94D400CE010E945C
S1130210F000DF91CF910895FC01039692838183CE
S11302202FEF3FEF348323839683858390878783DF
S113023010820895FC01118610860895CF93DF93F0
S1130240FC01DB0121813281E9018A819B811396C2
S11302509C938E9312978181928115969C938E9391
S113026014978A819B81EC017D836C83E9017B83F4
S11302706A83728361831996FC93EE931897808145
S11302808F5F8083DF91CF910895CF93DF93EB014C
S1130290488159814F3F2FEF520731F4DC01179603
S11302A0ED91FC91189717C0FC013396DC0115966B
S11302B02D913C911697D9012D913C9142175307EA
S11302C050F00280F381E02DA281B3812D913C9105
S11302D042175307B0F7A281B381BB83AA83159653
S11302E0DC93CE931497FD83EC83D383C2839987E5
S11302F08887FC0120812F5F2083DF91CF910895AF
S1130300FC01A281B3818481958115969C938E937F
S11303101497A481B5818281938113969C938E93C3
S11303201297A085B18511968D919C911297E8172B
S1130330F90731F48481958112969C938E931197D9
S1130340118610868C9181508C930895AF92BF9240
S1130350CF92DF92EF92FF920F930E94A9008FEF4A
S113036087BBA12CB12CC12CD12C0F2EFAE5EF2E7A
S1130370F3E0FF2EF02D03E020E030E044E650E00F
S113038060E070E08FE492E00E948E070F2EFCE59F
S1130390EF2EF3E0FF2EF02D02E020E030E044E603
S11303A050E060E070E080EA93E00E948E070F2E38
S11303B0F4E5EF2EF3E0FF2EF02D01E020E030E035
S11303C044E650E060E070E083EC92E00E948E0727
S11303D060E081E00E94C105909357038093560327
S11303E0009739F020E040E050E060E070E00E94C7
S11303F011060E94E50880E090E00F91FF90EF90D5
S1130400DF90CF90BF90AF9008954091E602509155
S1130410E70260E070E082E690E00E94FF008091D5
S1130420E6029091E7020097A1F41092590310920A
S1130430580381E090E09093E7028093E602809174
S1130440E4029091E50201969093E5028093E40220
S113045008958930910569F481E090E090935903FF
S11304608093580388E090E09093E7028093E6023B
S1130470089520915803309159032115310531F421
S113048001969093E7028093E602089521303105A6
S113049029F401979093E7028093E6020895CF939D
S11304A0DF9300D0CDB7DEB70E9416099A83898303
S11304B020E04FEF5FEF60E070E080915603909191
S11304C057030E94AB068091E4029091E5020497E1
S11304D084F469E170E0CE0101960E94690A0E94E9
S11304E0EC000E9405028091E4029091E5020497D9
S11304F084F30E94EC0020E040E050E060E070E013
S113050080915603909157030E94110680E090E079
S11305100E949C080F900F90DF91CF91089540E0C6
S113052050E060E070E08AE690E00E94FF0044E062
S113053050E061E070E08CE790E00E94FF000895D5
S1130540C39A0895C3980895CF93DF93C9E0D0E088
S1130550BE010D2E000C880B990B0E94410C20E06B
S113056030E04CEC51E40E94A50C0E94100C6CBFCE
S11305708FE493EC0197F1F700C00000219740F756
S1130580DF91CF910895CF93DF9300D0CDB7DEB73D
S11305900E9416099A83898320E04FEF5FEF60E0A1
S11305A070E080915603909157030E94AB0681300E
S11305B0F9F46AEF70E0CE0101960E94690A0E9484
S11305C0A0026AEF70E0CE0101960E94690A0E94BF
S11305D0A4026AEF70E0CE0101960E94690A0E94AB
S11305E0A2026AEF70E0CE0101960E94690AE1CF8F
S11305F020E040E050E060E070E08091560390918C
S113060057030E94110680E090E00E949C080F901E
S11306100F90DF91CF91089590E0FC013197E03184
S1130620F10510F5E65DFF4F0C943A0D88E308954B
S113063089E3089580E3089584E3089585E30895A4
S113064086E308958AE2089581E3089582E3089594
S113065083E308958DE208958DE0089580E308957D
S11306608DE308958BE2089580E0089587E308956B
S1130670AF92BF92CF92DF92EF92FF920F931F93AC
S1130680CF93DF9385B38F6085BB00E010E068945F
S1130690CC24C6F8D12C6894EE24E3F8F12CB02EC7
S11306A084B3807884BB84B39601002E02C0359550
S11306B027950A94E2F7282B24BBC0E0D0E0AC2EA7
S11306C023B330E0A7010C2E02C0559547950A9438
S11306D0E2F724233523232BE9F420E04FEF5FEFE7
S11306E060E070E080915603909157030E94AB063E
S11306F0813081F4AA0CAA0C8B0D8A0D0E940C0384
S1130700C82F40E050E060E070E090E00E94FF00FD
S11307108C2F0BC02196C430D10589F60F5F1F4F73
S11307200430110509F0BBCF80E0DF91CF911F9118
S11307300F91FF90EF90DF90CF90BF90AF9008950E
S1130740CF93DF9300D0CDB7DEB70E9416099A830A
S1130750898320E04FEF5FEF60E070E08091560303
S1130760909157030E94AB06813091F589819A815B
S11307708131974268F50E948F0264EF71E0CE01E7
S113078001960E94690A0E94EC006AEF70E0CE01B3
S113079001960E94690A20E040E050E060E070E0C9
S11307A080915603909157030E9411060E943803CA
S11307B020E04FEF5FEF60E070E08091560390918E
S11307C057030E94AB0689819A818131974298F23E
S11307D00E94EC0020E040E050E060E070E0809196
S11307E05603909157030E94110680E090E00E9406
S11307F09C080F900F90DF91CF91089531E1FC0197
S11308003083319722E220833197A3E3A083319789
S113081060833197708331971082319760E86083E9
S113082031971082319762E06083319763E060838F
S1130830319764E06083319765E06083319766E0C7
S11308406083319767E06083319768E06083319714
S113085069E06083319760E1608331973083319739
S113086032E13083319733E13083319734E130839F
S1130870319735E13083319736E13083319737E171
S11308803083319738E13083319739E130833197C0
S113089030E23083319731E23083319720833197CE
S11308A023E220833197408331975083319726E2A6
S11308B02083319727E22083319728E220833197E0
S11308C029E22083319720E32083319721E3208399
S11308D0869708951BBC8CE78ABD8BE08EBD89B7D3
S11308E0806189BFA0915203B0915303CD91CDBFD4
S11308F0DD91DEBFFF91EF91DF91CF91BF91AF9179
S11309009F918F917F916F915F914F913F912F9123
S11309101F910F91FF90EF90DF90CF90BF90AF9019
S11309209F908F907F906F905F904F903F902F900B
S11309301F900F900FBE0F90089581E008950F92BD
S11309400FB6F8940F921F9211242F923F924F9258
S11309505F926F927F928F929F92AF92BF92CF924B
S1130960DF92EF92FF920F931F932F933F934F9336
S11309705F936F937F938F939F93AF93BF93CF9323
S1130980DF93EF93FF93A0915203B09153030DB6FD
S11309900D920EB60D920E94E50AA0915203B091F9
S11309A05303CD91CDBFDD91DEBFFF91EF91DF9178
S11309B0CF91BF91AF919F918F917F916F915F91F3
S11309C04F913F912F911F910F91FF90EF90DF90E6
S11309D0CF90BF90AF909F908F907F906F905F90DB
S11309E04F903F902F901F900F900FBE0F9008953F
S11309F01F920F920FB60F9211242F933F934F9390
S1130A005F936F937F938F939F93AF93BF93EF9372
S1130A10FF930E942009FF91EF91BF91AF919F91A5
S1130A208F917F916F915F914F913F912F910F9093
S1130A300FBE0F901F901895CF93DF93EC018C8D10
S1130A408823A9F1411117C0482F50E08C819D8162
S1130A500E94400D2C8D8C819D81820F911D9D8360
S1130A608C832A813B818217930708F188819981BD
S1130A709D838C831CC0482F50E08E819F810E94EF
S1130A80400D8C8D90E09195819591092E813F8147
S1130A90280F391F3F832E83488159812417350736
S1130AA030F42A813B81820F931F9F838E838A8D2A
S1130AB08F5F8A8FDF91CF910895FC0180819181AE
S1130AC00097A1F0448D50E026813781240F351F13
S1130AD037832683A281B3812A173B0710F09783BB
S1130AE08683CB01668177810E94400D08950F9320
S1130AF01F93CF93DF93EC010FB6F8940F928E8D72
S1130B001816B4F48989811105C012C0898981112C
S1130B1004C00EC08E010F5E1F4FC8010E947D0BE2
S1130B2081110E940C0C8E8D81508E8F181674F3D7
S1130B308FEF8E8F0F900FBE0FB6F8940F928D8D9E
S1130B401816B4F48885811105C012C088858111F6
S1130B5004C00EC08E01085F1F4FC8010E947D0BA8
S1130B6081110E940C0C8D8D81508D8F181674F399
S1130B708FEF8D8F0F900FBEDF91CF911F910F914B
S1130B800895CF92DF92EF92FF920F931F93CF932A
S1130B90DF938823D1F1E62EF82E8FE190E00E94B6
S1130BA05900EC01892B99F1CE2CD12CFC9C8001AD
S1130BB0FD9C100D1124C80101960E9459009983CF
S1130BC088830097E1F09C01200F311F3B832A8327
S1130BD01A8E9D838C830C191D09080F191F1F83FE
S1130BE00E83FB8EEC8E8FEF8D8F8E8FCE01089649
S1130BF00E940C01CE0141960E940C0108C0CE0156
S1130C000E947F00C0E0D0E002C0C0E0D0E0CE018E
S1130C10DF91CF911F910F91FF90EF90DF90CF90D4
S1130C2008959F92AF92BF92CF92DF92EF92FF927C
S1130C300F931F93CF93DF9300D000D01F92CDB7B3
S1130C40DEB78C016B015D834C83922EB12CAA24F8
S1130C50A3947C0188E0E80EF11C0FB6F8940F927F
S1130C60F801928D838D9817A8F4492DB601C80117
S1130C700E941C05F8018189882341F0C80141962E
S1130C800E947D0B813011F40E949F040F900FBECF
S1130C9081E050C08C819D81892B21F40F900FBE7F
S1130CA080E048C0B11005C0CE0101960E94C20B7D
S1130CB0BA2C0F900FBE0E9410090FB6F8940F9231
S1130CC0F801858D8F3F09F4158EF801868D8F3FCD
S1130CD009F4168E0F900FBEBE016C5F7F4FCE01DC
S1130CE001960E94CD0B81111FC00FB6F8940F928C
S1130CF0F801928D0F900FBE838D98130FC06C81F5
S1130D007D81C7010E94510BC8010E9477050E9492
S1130D10E4098111A2CF0E949F049FCFC8010E94C1
S1130D2077050E94E40999CFC8010E9477050E94C3
S1130D30E40980E00F900F900F900F900F90DF91D7
S1130D40CF911F910F91FF90EF90DF90CF90BF90C4
S1130D50AF909F9008959F92AF92BF92CF92DF92EF
S1130D60EF92FF920F931F93CF93DF9300D000D0A5
S1130D701F92CDB7DEB78C016B015D834C83922E3D
S1130D80B12CAA24A3947C0181E1E80EF11C0FB6D6
S1130D90F8940F92F801828D882349F1E680F78058
S1130DA0B601C8010E945D05911010C0F801828D42
S1130DB08150828F80858823B1F0C80108960E94F3
S1130DC07D0B813081F40E949F040DC0F801F782ED
S1130DD0E6828189882339F0C80141960E947D0BFF
S1130DE081110E949F040F900FBE81E04FC08C813F
S1130DF09D81892B21F40F900FBE80E047C0B11074
S1130E0005C0CE0101960E94C20BBA2C0F900FBEF2
S1130E100E9410090FB6F8940F92F801858D8F3F48
S1130E2009F4158EF801868D8F3F09F4168E0F9004
S1130E300FBEBE016C5F7F4FCE0101960E94CD0BA9
S1130E4081111EC00FB6F8940F92F801828D0F9095
S1130E500FBE81110FC06C817D81C7010E94510BAF
S1130E60C8010E9477050E94E409811190CF0E9475
S1130E709F048DCFC8010E9477050E94E40987CFA3
S1130E80C8010E9477050E94E40980E00F900F904A
S1130E900F900F900F90DF91CF911F910F91FF90C2
S1130EA0EF90DF90CF90BF90AF909F900895CF9335
S1130EB0DF93EC01E0915203F09153039383828317
S1130EC08091F0029091F102C817D90768F46091FB
S1130ED052037091530380910F03909110036E5F3E
S1130EE07F4F0E94450117C06091520370915303D4
S1130EF080911103909112036E5F7F4F0E94450110
S1130F008091600090916100C817D90720F4D093B4
S1130F106100C0936000DF91CF9108954F925F927A
S1130F206F927F928F929F92AF92BF92CF92DF92F5
S1130F30EF92FF920F931F93CF93DF935C014B01CA
S1130F40EA01290181E290E00E9459003C010097E6
S1130F5009F4E0C0C114D10409F0D7C0CE010E9445
S1130F605900F301908F878B009721F4C3010E94ED
S1130F707F00D0C0AE0165EA70E00E94490D219760
S1130F80F3018789908DC80FD91F48E050E0B40160
S1130F90C30149960E94500DF30110A2102F053091
S1130FA008F014E0F301168B6301F2E0CF0ED11CBC
S1130FB0C6010E941A01C3010C960E941A01F30192
S1130FC07186608685E090E0811B9109958784870E
S1130FD0738A628AA201B501CE010E94FE03F30165
S1130FE091838083E114F10419F0F7017182608226
S1130FF00FB6F8940F928091F2028F5F8093F20201
S11310008091520390915303892BC9F57092530335
S1131010609252038091F202813009F03FC0C5E230
S1131020D3E00F2EF2E5EF2EF3E0FF2EF02DCE01EC
S11310300E940C012996CE15DF05C9F78CE193E0D7
S11310400E940C0183E193E00E940C0186E093E08E
S11310500E940C018DEF92E00E940C0183EF92E05C
S11310600E940C018CE193E090931203809311038E
S113107083E193E09093100380930F030FC080915A
S1131080ED0281110BC0E0915203F0915303868964
S1131090081720F07092530360925203F30186897B
S11310A09091EF02981710F48093EF029091E80268
S11310B09F5F9093E8029091EE02981710F480934A
S11310C0EE0290E09C01220F331F220F331F220FE8
S11310D0331F820F931FB6018B5D9C4F0E941E012C
S11310E00F900FBE8091ED02882359F0E0915203D6
S11310F0F09153038689801730F40E949F0481E0A5
S11311000AC081E008C081E006C0FC01D08EC78A15
S1131110C60130CF8FEFDF91CF911F910F91FF90D8
S1131120EF90DF90CF90BF90AF909F908F907F9083
S11311306F905F904F900895EF92FF920F931F93DB
S1131140CF93DF93EC010FB6F8940F928091520382
S1131150909153038C179D0711F0209739F4C09197
S11311605203D0915303E12CF12C01C07E018E0176
S11311700E5F1F4FC8010E9480018C899D89892BB5
S113118021F0CE010C960E948001B8018DEF92E00F
S11311900E941E018091FC028F5F8093FC0280916B
S11311A0E8028F5F8093E8020F900FBE8091ED02FA
S11311B0882321F0EF2811F40E949F04DF91CF913E
S11311C01F910F91FF90EF900895AF92BF92CF922D
S11311D0DF92EF92FF920F93A12CB12CC12CD12C52
S11311E0E12CF12C00E020E030E045E550E065E83A
S11311F070E083EB9AE00E948E07813049F4F89402
S11312008093ED021092F1021092F0020E946A049F
S11312100F91FF90EF90DF90CF90BF90AF90089523
S11312208091EC028F5F8093EC0208950FB6F894DE
S11312300F928091F0029091F1020F900FBE0895E9
S11312400F931F93CF93DF938091EC028111B2C06F
S11312508091F0029091F10201969093F1028093B3
S1131260F0028091F0029091F102892B99F580911E
S113127011039091120320910F03309110033093C6
S11312801203209311039093100380930F03809112
S1131290E9028F5F8093E902E0911103F091120358
S11312A08081811107C08FEF9FEF9093610080933D
S11312B0600010C0E0911103F09112030580F681E3
S11312C0E02D0680F781E02D828193819093610067
S11312D0809360002091F0023091F10280916000CF
S11312E0909161002817390708F469C0E09111034F
S11312F0F09112038081882399F0E0911103F09119
S113130012030580F681E02DC681D7818A819B81F5
S11313102091F0023091F10228173907F8F419C02E
S11313208FEF9FEF909361008093600048C0E0913D
S11313301103F09112030580F681E02DC681D78157
S11313408A819B812091F0023091F102281739079C
S113135028F4909361008093600031C08E010E5F89
S11313601F4FC8010E9480018C899D89892B21F01F
S1131370CE010C960E9480018E899091EE029817FE
S113138010F48093EE0290E09C01220F331F220F91
S1131390331F220F331F820F931FB8018B5D9C4FA5
S11313A00E941E01E0911103F091120380818111CA
S11313B0BECFB6CF8091EB028F5F8093EB02DF91BB
S11313C0CF911F910F910895CF92DF92EF92FF92E8
S11313D00F931F93CF93DF930FB6F8940F928091DE
S11313E0EC0281508093EC028091EC02811163C085
S11313F08091F202811132C061C0D7011596ED913E
S1131400FC911697C681D781CE010C960E9480016B
S11314108E010E5F1F4FC8010E9480018E8990913A
S1131420EE02981710F48093EE0290E09C01220FD4
S1131430331F220F331F220F331F820F931FB80154
S11314408B5D9C4F0E941E01E0915203F091530367
S11314509E898689981758F0DC2C09C0D12C0F2E50
S1131460F6E0EF2EF3E0FF2EF02DCC24C394F70129
S113147080818111C2CF8091EB02882379F0809121
S1131480EB02882359F00E9420098091EB028150DD
S11314908093EB028091EB028111F5CFF1E0DF162E
S11314A021F08091EA02813041F41092EA020E9414
S11314B09F0481E003C080E001C080E00F900FBE74
S11314C0DF91CF911F910F91FF90EF90DF90CF901C
S11314D008950F931F93CF93DF938C01EB010E9428
S11314E01009F80180819181C80FD91F2091F00261
S11314F03091F1022817390768F4C817D90750F555
S11315008091F0029091F102D183C0838C179D07E2
S1131510B0F40BC0C817D907C8F08091F0029091BD
S1131520F1028C179D0790F015C0809152039091A1
S1131530530302960E948001CE010E9457070E9425
S1131540E40981110BC00E949F0408C0F801D183F3
S1131550C083EBCFF801D183C083F1CFDF91CF916A
S11315601F910F9108950DEF12E08091FC028823E2
S113157049F10E941009D801CC910E94E409CC23BE
S113158009F10FB6F8940F92D8011596ED91FC91DC
S11315901697C681D781CE0102960E948001809160
S11315A0F20281508093F2028091FC028150809378
S11315B0FC020F900FBE8F89988D0E947F00CE0190
S11315C00E947F000E949F04D0CF8091EC02811181
S11315D013C08091EE0290E0FC01EE0FFF1FEE0FAE
S11315E0FF1FEE0FFF1F8E0F9F1FFC01EB5DFC4FD3
S11315F08081882329F01BC081E08093EA0208954A
S11316008091EE0281508093EE028091EE0290E090
S1131610FC01EE0FFF1FEE0FFF1FEE0FFF1F8E0FDB
S11316209F1FFC01EB5DFC4F8081882349F380916F
S1131630EE0290E09C01220F331F220F331F220F72
S1131640331F280F391FD901AB5DBC4F1196ED91A3
S1131650FC9112970280F381E02D1296FC93EE9395
S11316601197285D3C4FE217F30729F42281338157
S1131670FD0132832183FC01EE0FFF1FEE0FFF1FDC
S1131680EE0FFF1F8E0F9F1FFC01EB5DFC4F0180CF
S1131690F281E02D868197819093530380935203C6
S11316A00895CF93DF93EB0160915203709153033C
S11316B0645F7F4F0E9445018091520390915303D0
S11316C002960E948001CF3F8FEFD80759F46091B2
S11316D05203709153036E5F7F4F83EF92E00E9439
S11316E01E0108C08091F0029091F1028C0F9D1FA1
S11316F00E945707DF91CF9108950F931F93CF93C3
S1131700DF93DC011596ED91FC911697C681D78184
S11317108E01045F1F4FC8010E9480018091EC027A
S113172081111CC00A501109C8010E9480018E89D0
S11317309091EE02981710F48093EE0290E09C01D1
S1131740220F331F220F331F220F331F820F931FC9
S1131750B8018B5D9C4F0E941E0105C0B80186E054
S113176093E00E941E01E0915203F091530381E043
S11317702E899689291708F480E0DF91CF911F9173
S11317800F9108952091E902FC0120832091F00239
S11317903091F1023283218308950FB6F8940F92A9
S11317A0DB012D913C912F3FBFEF3B0769F1409145
S11317B0E902FC015081541751F04091F00250911C
S11317C0F1020180F281E02D4E175F07F8F4409199
S11317D0F0025091F102DC011196ED91FC91129707
S11317E04E1B5F0B4217530798F4DB014091F00244
S11317F05091F1024E1B5F0B241B350B2D933C9330
S11318000E94C20B80E005C080E003C081E001C0FB
S113181081E00F900FBE089581E08093EA0208955D
S11318200E94840C88F09F5798F0B92F9927B751DC
S1131830B0F0E1F0660F771F881F991F1AF0BA9570
S1131840C9F714C0B13091F00E949E0CB1E0089524
S11318500C949E0C672F782F8827B85F39F0B93F16
S1131860CCF3869577956795B395D9F73EF4909523
S11318708095709561957F4F8F4F9F4F0895E894A1
S113188009C097FB3EF490958095709561957F4FC4
S11318908F4F9F4F9923A9F0F92F96E9BB27939572
S11318A0F695879577956795B795F111F8CFFAF482
S11318B0BB0F11F460FF1BC06F5F7F4F8F4F9F4FB3
S11318C016C0882311F096E911C0772321F09EE811
S11318D0872F762F05C0662371F096E8862F70E077
S11318E060E02AF09A95660F771F881FDAF7880F51
S11318F09695879597F9089557FD9058440F551F6D
S113190059F05F3F71F04795880F97FB991F61F07D
S11319109F3F79F087950895121613061406551FF4
S1131920F2CF4695F1DF08C0161617061806991F60
S1131930F1CF86957105610508940895E894BB2755
S113194066277727CB0197F908950E94B80C0C9469
S1131950290D0E941B0D38F00E94220D20F09523C2
S113196011F00C94120D0C94180D11240C949F0C6E
S11319700E947C0C70F3959FC1F3950F50E0551FA6
S1131980629FF001729FBB27F00DB11D639FAA27D0
S1131990F00DB11DAA1F649F6627B00DA11D661F1F
S11319A0829F2227B00DA11D621F739FB00DA11D40
S11319B0621F839FA00D611D221F749F3327A00DFA
S11319C0611D231F849F600D211D822F762F6A2F96
S11319D011249F5750409AF0F1F088234AF0EE0FFB
S11319E0FF1FBB1F661F771F881F91505040A9F728
S11319F09E3F510580F00C94120D0C949F0C5F3F98
S1131A00E4F3983ED4F3869577956795B795F79563
S1131A10E7959F5FC1F7FE2B880F911D96958795DB
S1131A2097F9089597F99F6780E870E060E008955A
S1131A309FEF80EC089500240A94161617061806E2
S1131A400906089500240A941216130614060506BE
S1131A500895092E0394000C11F4882352F0BB0F4F
S1131A6040F4BF2B11F460FF04C06F5F7F4F8F4FB2
S1131A709F4F0895EE0FFF1F0590F491E02D0994F8
S1131A80FB01DC0102C001900D9241505040D8F797
S1131A900895DC0101C06D9341505040E0F7089572
S1131AA0FB01DC014150504048F001900D920020B0
S1131AB0C9F701C01D9241505040E0F70895F894D1
S1051AC0FFCF52
S1131AC2FFFF57656C636F6D650050726573732019
S1131AD2616E79206B657920746F2000636F6E7478
S10D1AE2696E75650049444C450027
S9030000FC
